{
  "contractName": "VendingMachine",
  "abi": [
    {
      "inputs": [],
      "stateMutability": "nonpayable",
      "type": "constructor"
    },
    {
      "inputs": [
        {
          "internalType": "address",
          "name": "",
          "type": "address"
        }
      ],
      "name": "donutBalances",
      "outputs": [
        {
          "internalType": "uint256",
          "name": "",
          "type": "uint256"
        }
      ],
      "stateMutability": "view",
      "type": "function",
      "constant": true
    },
    {
      "inputs": [],
      "name": "owner",
      "outputs": [
        {
          "internalType": "address",
          "name": "",
          "type": "address"
        }
      ],
      "stateMutability": "view",
      "type": "function",
      "constant": true
    },
    {
      "inputs": [],
      "name": "getVendingMachineBalance",
      "outputs": [
        {
          "internalType": "uint256",
          "name": "",
          "type": "uint256"
        }
      ],
      "stateMutability": "view",
      "type": "function",
      "constant": true
    },
    {
      "inputs": [
        {
          "internalType": "uint256",
          "name": "amount",
          "type": "uint256"
        }
      ],
      "name": "restoke",
      "outputs": [],
      "stateMutability": "nonpayable",
      "type": "function"
    },
    {
      "inputs": [
        {
          "internalType": "uint256",
          "name": "amount",
          "type": "uint256"
        }
      ],
      "name": "purchase",
      "outputs": [],
      "stateMutability": "payable",
      "type": "function",
      "payable": true
    }
  ],
  "bytecode": "0x608060405234801561001057600080fd5b50336000806101000a81548173ffffffffffffffffffffffffffffffffffffffff021916908373ffffffffffffffffffffffffffffffffffffffff1602179055506064600160003073ffffffffffffffffffffffffffffffffffffffff1673ffffffffffffffffffffffffffffffffffffffff16815260200190815260200160002081905550610791806100a56000396000f3fe60806040526004361061004a5760003560e01c8063488d78211461004f5780638da5cb5b146100785780639a020d8a146100a3578063e7644d34146100e0578063efef39a11461010b575b600080fd5b34801561005b57600080fd5b5061007660048036038101906100719190610453565b610127565b005b34801561008457600080fd5b5061008d61020e565b60405161009a91906104c1565b60405180910390f35b3480156100af57600080fd5b506100ca60048036038101906100c59190610508565b610232565b6040516100d79190610544565b60405180910390f35b3480156100ec57600080fd5b506100f561024a565b6040516101029190610544565b60405180910390f35b61012560048036038101906101209190610453565b610291565b005b60008054906101000a900473ffffffffffffffffffffffffffffffffffffffff1673ffffffffffffffffffffffffffffffffffffffff163373ffffffffffffffffffffffffffffffffffffffff16146101b5576040517f08c379a00000000000000000000000000000000000000000000000000000000081526004016101ac906105bc565b60405180910390fd5b80600160003073ffffffffffffffffffffffffffffffffffffffff1673ffffffffffffffffffffffffffffffffffffffff1681526020019081526020016000206000828254610204919061060b565b9250508190555050565b60008054906101000a900473ffffffffffffffffffffffffffffffffffffffff1681565b60016020528060005260406000206000915090505481565b6000600160003073ffffffffffffffffffffffffffffffffffffffff1673ffffffffffffffffffffffffffffffffffffffff16815260200190815260200160002054905090565b671bc16d674ec80000816102a59190610661565b3410156102e7576040517f08c379a00000000000000000000000000000000000000000000000000000000081526004016102de90610707565b60405180910390fd5b600160003073ffffffffffffffffffffffffffffffffffffffff1673ffffffffffffffffffffffffffffffffffffffff16815260200190815260200160002054811115610369576040517f08c379a000000000000000000000000000000000000000000000000000000000815260040161036090610707565b60405180910390fd5b80600160003073ffffffffffffffffffffffffffffffffffffffff1673ffffffffffffffffffffffffffffffffffffffff16815260200190815260200160002060008282546103b89190610727565b9250508190555080600160003373ffffffffffffffffffffffffffffffffffffffff1673ffffffffffffffffffffffffffffffffffffffff168152602001908152602001600020600082825461040e919061060b565b9250508190555050565b600080fd5b6000819050919050565b6104308161041d565b811461043b57600080fd5b50565b60008135905061044d81610427565b92915050565b60006020828403121561046957610468610418565b5b60006104778482850161043e565b91505092915050565b600073ffffffffffffffffffffffffffffffffffffffff82169050919050565b60006104ab82610480565b9050919050565b6104bb816104a0565b82525050565b60006020820190506104d660008301846104b2565b92915050565b6104e5816104a0565b81146104f057600080fd5b50565b600081359050610502816104dc565b92915050565b60006020828403121561051e5761051d610418565b5b600061052c848285016104f3565b91505092915050565b61053e8161041d565b82525050565b60006020820190506105596000830184610535565b92915050565b600082825260208201905092915050565b7f6e6f742061206f776e6572210000000000000000000000000000000000000000600082015250565b60006105a6600c8361055f565b91506105b182610570565b602082019050919050565b600060208201905081810360008301526105d581610599565b9050919050565b7f4e487b7100000000000000000000000000000000000000000000000000000000600052601160045260246000fd5b60006106168261041d565b91506106218361041d565b9250827fffffffffffffffffffffffffffffffffffffffffffffffffffffffffffffffff03821115610656576106556105dc565b5b828201905092915050565b600061066c8261041d565b91506106778361041d565b9250817fffffffffffffffffffffffffffffffffffffffffffffffffffffffffffffffff04831182151516156106b0576106af6105dc565b5b828202905092915050565b7f646f6e6074206861766520656e6f756768206d6f6e6579210000000000000000600082015250565b60006106f160188361055f565b91506106fc826106bb565b602082019050919050565b60006020820190508181036000830152610720816106e4565b9050919050565b60006107328261041d565b915061073d8361041d565b9250828210156107505761074f6105dc565b5b82820390509291505056fea264697066735822122011874164f21ce4dc5fdf7e58f77a6db1214fc1113fa4cdc69ef949dfac8ef00464736f6c634300080a0033",
  "immutableReferences": {},
  "source": "// SPDX-License-Identifier: MIT\npragma solidity ^0.8.1;\n\ncontract VendingMachine {\n    address public owner;\n    mapping(address => uint256) public donutBalances;\n\n    constructor() {\n        owner = msg.sender;\n        donutBalances[address(this)] = 100;\n    }\n\n    function getVendingMachineBalance() public view returns(uint ) {\n        return donutBalances[address(this)];\n    }\n\n    function restoke(uint amount) public {\n        require(msg.sender == owner,\"not a owner!\");\n        donutBalances[address(this)] += amount;\n    }\n\n    function purchase(uint amount) public payable{\n        require(msg.value >= amount * 2 ether, \"don`t have enough money!\");\n        require(amount <= donutBalances[address(this)], \"don`t have enough money!\");\n         donutBalances[address(this)] -=amount;\n         donutBalances[msg.sender] += amount;\n    }\n}",
  "sourcePath": "/Users/luboyi/Solidity/Solidity/WEB3.0-UI/vending-machine/contracts/VendingMachine.sol",
  "compiler": {
    "name": "solc",
    "version": "0.8.10+commit.fc410830.Emscripten.clang"
  },
  "schemaVersion": "3.4.13",
  "updatedAt": "2023-04-03T04:35:48.087Z",
  "networkType": "ethereum",
  "devdoc": {
    "kind": "dev",
    "methods": {},
    "version": 1
  },
  "userdoc": {
    "kind": "user",
    "methods": {},
    "version": 1
  }
}